{
  "contractName": "Post",
  "abi": [
    {
      "inputs": [
        {
          "internalType": "string",
          "name": "_hash",
          "type": "string"
        }
      ],
      "name": "addPostsHash",
      "outputs": [],
      "stateMutability": "nonpayable",
      "type": "function"
    },
    {
      "inputs": [
        {
          "internalType": "string",
          "name": "_hash",
          "type": "string"
        }
      ],
      "name": "getPostHash",
      "outputs": [
        {
          "internalType": "bool",
          "name": "",
          "type": "bool"
        }
      ],
      "stateMutability": "view",
      "type": "function"
    }
  ],
  "bytecode": "0x608060405234801561001057600080fd5b5061038c806100206000396000f3fe608060405234801561001057600080fd5b50600436106100365760003560e01c806316aa4f6a1461003b57806398eeeab11461006b575b600080fd5b6100556004803603810190610050919061024f565b610087565b60405161006291906102b3565b60405180910390f35b6100856004803603810190610080919061024f565b6100bb565b005b60008082604051610098919061033f565b908152602001604051809103902060009054906101000a900460ff169050919050565b60016000826040516100cd919061033f565b908152602001604051809103902060006101000a81548160ff02191690831515021790555050565b6000604051905090565b600080fd5b600080fd5b600080fd5b600080fd5b6000601f19601f8301169050919050565b7f4e487b7100000000000000000000000000000000000000000000000000000000600052604160045260246000fd5b61015c82610113565b810181811067ffffffffffffffff8211171561017b5761017a610124565b5b80604052505050565b600061018e6100f5565b905061019a8282610153565b919050565b600067ffffffffffffffff8211156101ba576101b9610124565b5b6101c382610113565b9050602081019050919050565b82818337600083830152505050565b60006101f26101ed8461019f565b610184565b90508281526020810184848401111561020e5761020d61010e565b5b6102198482856101d0565b509392505050565b600082601f83011261023657610235610109565b5b81356102468482602086016101df565b91505092915050565b600060208284031215610265576102646100ff565b5b600082013567ffffffffffffffff81111561028357610282610104565b5b61028f84828501610221565b91505092915050565b60008115159050919050565b6102ad81610298565b82525050565b60006020820190506102c860008301846102a4565b92915050565b600081519050919050565b600081905092915050565b60005b838110156103025780820151818401526020810190506102e7565b60008484015250505050565b6000610319826102ce565b61032381856102d9565b93506103338185602086016102e4565b80840191505092915050565b600061034b828461030e565b91508190509291505056fea26469706673582212203ef536803292b110fe7698f5edec01480a16783a535046953e5c92422256a01364736f6c63430008100033",
  "immutableReferences": {},
  "source": "// SPDX-License-Identifier: GPL-3.0\r\n\r\npragma solidity >=0.7.0 <0.9.0;\r\n\r\n/**\r\n * @title Storage\r\n * @dev Store & retrieve value in a variable\r\n */\r\ncontract Post {\r\n\r\n    \r\nmapping(string => bool) postHash;\r\n\r\n    function addPostsHash(string memory _hash) public {\r\n        \r\n        postHash[_hash] = true;\r\n\r\n    }\r\n\r\n    function getPostHash(string memory _hash) public view returns (bool) {\r\n\r\n        return postHash[_hash];\r\n\r\n    }\r\n\r\n   \r\n}",
  "sourcePath": "C:\\Users\\USER\\pythontest\\contractTest\\contracts\\Post.sol",
  "compiler": {
    "name": "solc",
    "version": "0.8.16+commit.07a7930e.Emscripten.clang"
  },
  "schemaVersion": "3.4.9",
  "updatedAt": "2023-07-06T09:26:49.145Z",
  "devdoc": {
    "details": "Store & retrieve value in a variable",
    "kind": "dev",
    "methods": {},
    "title": "Storage",
    "version": 1
  },
  "userdoc": {
    "kind": "user",
    "methods": {},
    "version": 1
  }
}