{
  "contractName": "PostFilter",
  "abi": [
    {
      "inputs": [],
      "stateMutability": "nonpayable",
      "type": "constructor"
    },
    {
      "inputs": [
        {
          "internalType": "bytes",
          "name": "postHash",
          "type": "bytes"
        }
      ],
      "name": "addItem",
      "outputs": [
        {
          "internalType": "uint256",
          "name": "",
          "type": "uint256"
        }
      ],
      "stateMutability": "nonpayable",
      "type": "function"
    },
    {
      "inputs": [
        {
          "internalType": "uint256",
          "name": "_postID",
          "type": "uint256"
        },
        {
          "internalType": "bytes",
          "name": "item",
          "type": "bytes"
        }
      ],
      "name": "isItemExist",
      "outputs": [
        {
          "components": [
            {
              "internalType": "bool",
              "name": "exists",
              "type": "bool"
            },
            {
              "internalType": "uint256",
              "name": "filtersPoolID",
              "type": "uint256"
            }
          ],
          "internalType": "struct PostFilter.VerificationResult",
          "name": "",
          "type": "tuple"
        }
      ],
      "stateMutability": "view",
      "type": "function",
      "constant": true
    },
    {
      "inputs": [],
      "name": "getFilters",
      "outputs": [
        {
          "internalType": "bytes32[]",
          "name": "",
          "type": "bytes32[]"
        }
      ],
      "stateMutability": "view",
      "type": "function",
      "constant": true
    },
    {
      "inputs": [],
      "name": "getLastPostPoolPageID",
      "outputs": [
        {
          "internalType": "uint256",
          "name": "",
          "type": "uint256"
        }
      ],
      "stateMutability": "view",
      "type": "function",
      "constant": true
    },
    {
      "inputs": [
        {
          "internalType": "bytes",
          "name": "item",
          "type": "bytes"
        }
      ],
      "name": "resetAndAddItem",
      "outputs": [],
      "stateMutability": "nonpayable",
      "type": "function"
    }
  ],
  "bytecode": "0x608060405234801561001057600080fd5b506000808060018154018082558091505060019003906000526020600020016000909160001b90919091505560006001819055506000600281905550610bed8061005b6000396000f3fe608060405234801561001057600080fd5b50600436106100575760003560e01c8063259060d91461005c5780633afb5d071461007a5780633bf9977114610096578063d294ccef146100b4578063e0e66ac2146100e4575b600080fd5b610064610114565b604051610071919061060f565b60405180910390f35b610094600480360381019061008f919061078b565b61016c565b005b61009e610181565b6040516100ab91906107ed565b60405180910390f35b6100ce60048036038101906100c9919061078b565b61018b565b6040516100db91906107ed565b60405180910390f35b6100fe60048036038101906100f99190610834565b610315565b60405161010b91906108e9565b60405180910390f35b6060600080548060200260200160405190810160405280929190818152602001828054801561016257602002820191906000526020600020905b81548152602001906001019080831161014e575b5050505050905090565b61017461049b565b61017d8161018b565b5050565b6000600154905090565b6000600260008154809291906101a090610933565b919050555060006001600260016002546101ba919061097b565b6101c491906109de565b6101ce9190610a0f565b9050600060056001836101e1919061097b565b6101eb9190610a43565b9050600080828154811061020257610201610a74565b5b9060005260206000200154905060005b60078110156102785760006101008783604051602001610233929190610b35565b6040516020818303038152906040528051906020012060001c6102569190610a43565b9050806001901b60001b8317925050808061027090610933565b915050610212565b50806000838154811061028e5761028d610a74565b5b90600052602060002001819055506000600280546102ac9190610a43565b036102dd576000808060018154018082558091505060019003906000526020600020016000909160001b9091909150555b6000600260056102ed9190610b5d565b6002546102fa9190610a43565b036103085761030761049b565b5b6002549350505050919050565b61031d6104ed565b6103256104ed565b600060016002600187610338919061097b565b61034291906109de565b61034c9190610a0f565b90506000600560018361035f919061097b565b6103699190610a43565b9050600260056103799190610b5d565b6001546103869190610b5d565b600254116103b457600083600001901515908115158152505085836020018181525050829350505050610495565b60008082815481106103c9576103c8610a74565b5b9060005260206000200154905060005b600781101561047057600061010088836040516020016103fa929190610b35565b6040516020818303038152906040528051906020012060001c61041d9190610a43565b90506000801b816001901b60001b84160361045c5760008660000190151590811515815250506000866020018181525050859650505050505050610495565b50808061046890610933565b9150506103d9565b5060018460000190151590811515815250506000846020018181525050839450505050505b92915050565b6000806104a89190610509565b6000808060018154018082558091505060019003906000526020600020016000909160001b909190915055600160008154809291906104e690610933565b9190505550565b6040518060400160405280600015158152602001600081525090565b5080546000825590600052602060002090810190610527919061052a565b50565b5b8082111561054357600081600090555060010161052b565b5090565b600081519050919050565b600082825260208201905092915050565b6000819050602082019050919050565b6000819050919050565b61058681610573565b82525050565b6000610598838361057d565b60208301905092915050565b6000602082019050919050565b60006105bc82610547565b6105c68185610552565b93506105d183610563565b8060005b838110156106025781516105e9888261058c565b97506105f4836105a4565b9250506001810190506105d5565b5085935050505092915050565b6000602082019050818103600083015261062981846105b1565b905092915050565b6000604051905090565b600080fd5b600080fd5b600080fd5b600080fd5b6000601f19601f8301169050919050565b7f4e487b7100000000000000000000000000000000000000000000000000000000600052604160045260246000fd5b6106988261064f565b810181811067ffffffffffffffff821117156106b7576106b6610660565b5b80604052505050565b60006106ca610631565b90506106d6828261068f565b919050565b600067ffffffffffffffff8211156106f6576106f5610660565b5b6106ff8261064f565b9050602081019050919050565b82818337600083830152505050565b600061072e610729846106db565b6106c0565b90508281526020810184848401111561074a5761074961064a565b5b61075584828561070c565b509392505050565b600082601f83011261077257610771610645565b5b813561078284826020860161071b565b91505092915050565b6000602082840312156107a1576107a061063b565b5b600082013567ffffffffffffffff8111156107bf576107be610640565b5b6107cb8482850161075d565b91505092915050565b6000819050919050565b6107e7816107d4565b82525050565b600060208201905061080260008301846107de565b92915050565b610811816107d4565b811461081c57600080fd5b50565b60008135905061082e81610808565b92915050565b6000806040838503121561084b5761084a61063b565b5b60006108598582860161081f565b925050602083013567ffffffffffffffff81111561087a57610879610640565b5b6108868582860161075d565b9150509250929050565b60008115159050919050565b6108a581610890565b82525050565b6108b4816107d4565b82525050565b6040820160008201516108d0600085018261089c565b5060208201516108e360208501826108ab565b50505050565b60006040820190506108fe60008301846108ba565b92915050565b7f4e487b7100000000000000000000000000000000000000000000000000000000600052601160045260246000fd5b600061093e826107d4565b91507fffffffffffffffffffffffffffffffffffffffffffffffffffffffffffffffff82036109705761096f610904565b5b600182019050919050565b6000610986826107d4565b9150610991836107d4565b92508282039050818111156109a9576109a8610904565b5b92915050565b7f4e487b7100000000000000000000000000000000000000000000000000000000600052601260045260246000fd5b60006109e9826107d4565b91506109f4836107d4565b925082610a0457610a036109af565b5b828204905092915050565b6000610a1a826107d4565b9150610a25836107d4565b9250828201905080821115610a3d57610a3c610904565b5b92915050565b6000610a4e826107d4565b9150610a59836107d4565b925082610a6957610a686109af565b5b828206905092915050565b7f4e487b7100000000000000000000000000000000000000000000000000000000600052603260045260246000fd5b600081519050919050565b600081905092915050565b60005b83811015610ad7578082015181840152602081019050610abc565b60008484015250505050565b6000610aee82610aa3565b610af88185610aae565b9350610b08818560208601610ab9565b80840191505092915050565b6000819050919050565b610b2f610b2a826107d4565b610b14565b82525050565b6000610b418285610ae3565b9150610b4d8284610b1e565b6020820191508190509392505050565b6000610b68826107d4565b9150610b73836107d4565b9250817fffffffffffffffffffffffffffffffffffffffffffffffffffffffffffffffff0483118215151615610bac57610bab610904565b5b82820290509291505056fea2646970667358221220578228f685814eda96075babfbc1c79f64b5a10e788702d910b79093e77f221d64736f6c63430008100033",
  "immutableReferences": {},
  "source": "pragma solidity ^0.8.0;\r\n\r\ncontract PostFilter {\r\n\r\n    struct VerificationResult {\r\n        bool exists;\r\n        uint filtersPoolID;\r\n    }\r\n\r\n\r\n    bytes32[] private postFiltersPool;\r\n    uint private lastPostPoolPageID;\r\n    uint private postID;\r\n\r\n    uint private constant FILTER_POOL_SIZE = 5; //    \r\n    uint private constant POSTS_PER_BUNDLE = 2; //   \r\n    uint private constant MAX_POSTS_IN_POOL = FILTER_POOL_SIZE * POSTS_PER_BUNDLE; //   \r\n    uint private constant FILTER_SIZE = 256;\r\n    uint private constant NUM_HASH_FUNCTIONS = 7;\r\n    \r\n    constructor() {\r\n        postFiltersPool.push(0); //   \r\n        lastPostPoolPageID = 0;\r\n        postID = 0;\r\n    }\r\n\r\n    function addItem(bytes memory postHash) public returns (uint) {\r\n        postID++;\r\n        uint postBundleID = (postID - 1) / POSTS_PER_BUNDLE + 1;\r\n        uint filterIndex = (postBundleID - 1) % FILTER_POOL_SIZE;\r\n\r\n        bytes32 filter = postFiltersPool[filterIndex];\r\n\r\n        for (uint i = 0; i < NUM_HASH_FUNCTIONS; i++) {\r\n            uint hash = uint(keccak256(abi.encodePacked(postHash, i))) % FILTER_SIZE;\r\n            filter |= (bytes32(uint(1) << hash));\r\n        }\r\n\r\n        postFiltersPool[filterIndex] = filter;\r\n        \r\n        if(postID % POSTS_PER_BUNDLE == 0)\r\n            postFiltersPool.push(0);\r\n\r\n        if (postID % MAX_POSTS_IN_POOL == 0)\r\n            resetFilters(); //  \r\n        \r\n\r\n        return postID;\r\n    }\r\n\r\n    function isItemExist(uint _postID, bytes memory item) public view returns (VerificationResult memory) {\r\n        VerificationResult memory result;\r\n        uint postBundleID = (_postID - 1) / POSTS_PER_BUNDLE + 1;\r\n        uint filterIndex = (postBundleID - 1) % FILTER_POOL_SIZE;\r\n\r\n        if (postID <= lastPostPoolPageID * MAX_POSTS_IN_POOL) {\r\n            result.exists = false;\r\n            result.filtersPoolID = _postID;\r\n            return result;\r\n        }\r\n\r\n        bytes32 filter = postFiltersPool[filterIndex];\r\n        \r\n        for (uint j = 0; j < NUM_HASH_FUNCTIONS; j++) {\r\n            uint hash = uint(keccak256(abi.encodePacked(item, j))) % FILTER_SIZE;\r\n            if ((filter & (bytes32(uint(1) << hash))) == 0) {\r\n                result.exists = false;\r\n                result.filtersPoolID = 0;\r\n                return result;\r\n            }\r\n        }\r\n\r\n        result.exists = true;\r\n        result.filtersPoolID = 0;\r\n        return result;\r\n    }\r\n\r\n    function getFilters() public view returns (bytes32[] memory) {\r\n        return postFiltersPool;\r\n    }\r\n\r\n    function getLastPostPoolPageID() public view returns (uint) {\r\n        return lastPostPoolPageID;\r\n    }\r\n\r\n    function resetFilters() internal {\r\n        delete postFiltersPool;\r\n        postFiltersPool.push(0); //   \r\n        lastPostPoolPageID++;\r\n    }\r\n\r\n    function resetAndAddItem(bytes memory item) public {\r\n        resetFilters();\r\n        addItem(item);\r\n    }\r\n}",
  "sourcePath": "C:\\Users\\USER\\pythontest\\contractTest\\contracts\\PostFilter.sol",
  "compiler": {
    "name": "solc",
    "version": "0.8.16+commit.07a7930e.Emscripten.clang"
  },
  "schemaVersion": "3.4.9",
  "updatedAt": "2023-07-06T09:27:52.709Z",
  "networkType": "ethereum",
  "devdoc": {
    "kind": "dev",
    "methods": {},
    "version": 1
  },
  "userdoc": {
    "kind": "user",
    "methods": {},
    "version": 1
  }
}